{
  "_format": "hh-sol-artifact-1",
  "contractName": "DAORealEstate",
  "sourceName": "contracts/DAORealEstate.sol",
  "abi": [
    {
      "inputs": [
        {
          "internalType": "uint256",
          "name": "_developer_fees",
          "type": "uint256"
        },
        {
          "internalType": "uint256",
          "name": "_validator_fees",
          "type": "uint256"
        }
      ],
      "stateMutability": "nonpayable",
      "type": "constructor"
    },
    {
      "anonymous": false,
      "inputs": [
        {
          "indexed": true,
          "internalType": "address",
          "name": "from",
          "type": "address"
        },
        {
          "indexed": false,
          "internalType": "uint256",
          "name": "timestamp",
          "type": "uint256"
        },
        {
          "components": [
            {
              "internalType": "uint256",
              "name": "id",
              "type": "uint256"
            },
            {
              "internalType": "uint256",
              "name": "price",
              "type": "uint256"
            },
            {
              "internalType": "address",
              "name": "developer",
              "type": "address"
            },
            {
              "internalType": "string",
              "name": "name",
              "type": "string"
            },
            {
              "internalType": "string",
              "name": "description",
              "type": "string"
            },
            {
              "internalType": "string",
              "name": "longitude",
              "type": "string"
            },
            {
              "internalType": "string",
              "name": "latitude",
              "type": "string"
            },
            {
              "internalType": "string",
              "name": "image_hash",
              "type": "string"
            }
          ],
          "indexed": false,
          "internalType": "struct DAORealEstate.Property",
          "name": "property",
          "type": "tuple"
        }
      ],
      "name": "NewProperty",
      "type": "event"
    },
    {
      "anonymous": false,
      "inputs": [
        {
          "indexed": true,
          "internalType": "address",
          "name": "previousOwner",
          "type": "address"
        },
        {
          "indexed": true,
          "internalType": "address",
          "name": "newOwner",
          "type": "address"
        }
      ],
      "name": "OwnershipTransferred",
      "type": "event"
    },
    {
      "inputs": [
        {
          "internalType": "string",
          "name": "_kyc_hash",
          "type": "string"
        }
      ],
      "name": "createDeveloper",
      "outputs": [],
      "stateMutability": "payable",
      "type": "function"
    },
    {
      "inputs": [
        {
          "internalType": "string",
          "name": "_kyc_hash",
          "type": "string"
        }
      ],
      "name": "createInvestor",
      "outputs": [],
      "stateMutability": "nonpayable",
      "type": "function"
    },
    {
      "inputs": [
        {
          "internalType": "uint256",
          "name": "_price",
          "type": "uint256"
        },
        {
          "internalType": "string",
          "name": "_name",
          "type": "string"
        },
        {
          "internalType": "string",
          "name": "_description",
          "type": "string"
        },
        {
          "internalType": "string",
          "name": "_longitude",
          "type": "string"
        },
        {
          "internalType": "string",
          "name": "_latitude",
          "type": "string"
        },
        {
          "internalType": "string",
          "name": "_image_hash",
          "type": "string"
        }
      ],
      "name": "createProperty",
      "outputs": [
        {
          "internalType": "bool",
          "name": "",
          "type": "bool"
        }
      ],
      "stateMutability": "nonpayable",
      "type": "function"
    },
    {
      "inputs": [
        {
          "internalType": "string",
          "name": "_kyc_hash",
          "type": "string"
        }
      ],
      "name": "createValidator",
      "outputs": [],
      "stateMutability": "payable",
      "type": "function"
    },
    {
      "inputs": [],
      "name": "gemmi",
      "outputs": [
        {
          "internalType": "int256",
          "name": "",
          "type": "int256"
        }
      ],
      "stateMutability": "nonpayable",
      "type": "function"
    },
    {
      "inputs": [],
      "name": "getAllProperty",
      "outputs": [
        {
          "components": [
            {
              "internalType": "uint256",
              "name": "id",
              "type": "uint256"
            },
            {
              "internalType": "uint256",
              "name": "price",
              "type": "uint256"
            },
            {
              "internalType": "address",
              "name": "developer",
              "type": "address"
            },
            {
              "internalType": "string",
              "name": "name",
              "type": "string"
            },
            {
              "internalType": "string",
              "name": "description",
              "type": "string"
            },
            {
              "internalType": "string",
              "name": "longitude",
              "type": "string"
            },
            {
              "internalType": "string",
              "name": "latitude",
              "type": "string"
            },
            {
              "internalType": "string",
              "name": "image_hash",
              "type": "string"
            }
          ],
          "internalType": "struct DAORealEstate.Property[]",
          "name": "",
          "type": "tuple[]"
        }
      ],
      "stateMutability": "view",
      "type": "function"
    },
    {
      "inputs": [],
      "name": "getDeveloperCreationFees",
      "outputs": [
        {
          "internalType": "uint256",
          "name": "",
          "type": "uint256"
        }
      ],
      "stateMutability": "nonpayable",
      "type": "function"
    },
    {
      "inputs": [],
      "name": "getValidatorCreationFees",
      "outputs": [
        {
          "internalType": "uint256",
          "name": "",
          "type": "uint256"
        }
      ],
      "stateMutability": "nonpayable",
      "type": "function"
    },
    {
      "inputs": [
        {
          "internalType": "uint256",
          "name": "_property_id",
          "type": "uint256"
        },
        {
          "internalType": "uint256",
          "name": "_amount",
          "type": "uint256"
        }
      ],
      "name": "invest",
      "outputs": [
        {
          "internalType": "uint256",
          "name": "",
          "type": "uint256"
        }
      ],
      "stateMutability": "payable",
      "type": "function"
    },
    {
      "inputs": [
        {
          "internalType": "uint256",
          "name": "",
          "type": "uint256"
        }
      ],
      "name": "investments",
      "outputs": [
        {
          "internalType": "uint256",
          "name": "property_id",
          "type": "uint256"
        },
        {
          "internalType": "address",
          "name": "investor",
          "type": "address"
        },
        {
          "internalType": "uint256",
          "name": "amount",
          "type": "uint256"
        }
      ],
      "stateMutability": "view",
      "type": "function"
    },
    {
      "inputs": [],
      "name": "owner",
      "outputs": [
        {
          "internalType": "address",
          "name": "",
          "type": "address"
        }
      ],
      "stateMutability": "view",
      "type": "function"
    },
    {
      "inputs": [
        {
          "internalType": "uint256",
          "name": "",
          "type": "uint256"
        }
      ],
      "name": "properties",
      "outputs": [
        {
          "internalType": "uint256",
          "name": "id",
          "type": "uint256"
        },
        {
          "internalType": "uint256",
          "name": "price",
          "type": "uint256"
        },
        {
          "internalType": "address",
          "name": "developer",
          "type": "address"
        },
        {
          "internalType": "string",
          "name": "name",
          "type": "string"
        },
        {
          "internalType": "string",
          "name": "description",
          "type": "string"
        },
        {
          "internalType": "string",
          "name": "longitude",
          "type": "string"
        },
        {
          "internalType": "string",
          "name": "latitude",
          "type": "string"
        },
        {
          "internalType": "string",
          "name": "image_hash",
          "type": "string"
        }
      ],
      "stateMutability": "view",
      "type": "function"
    },
    {
      "inputs": [],
      "name": "renounceOwnership",
      "outputs": [],
      "stateMutability": "nonpayable",
      "type": "function"
    },
    {
      "inputs": [
        {
          "internalType": "uint256",
          "name": "",
          "type": "uint256"
        }
      ],
      "name": "totalProperyInvestment",
      "outputs": [
        {
          "internalType": "uint256",
          "name": "",
          "type": "uint256"
        }
      ],
      "stateMutability": "view",
      "type": "function"
    },
    {
      "inputs": [
        {
          "internalType": "address",
          "name": "newOwner",
          "type": "address"
        }
      ],
      "name": "transferOwnership",
      "outputs": [],
      "stateMutability": "nonpayable",
      "type": "function"
    },
    {
      "inputs": [
        {
          "internalType": "address",
          "name": "",
          "type": "address"
        }
      ],
      "name": "users",
      "outputs": [
        {
          "internalType": "string",
          "name": "kyc_hash",
          "type": "string"
        },
        {
          "internalType": "string",
          "name": "account_type",
          "type": "string"
        },
        {
          "internalType": "bool",
          "name": "is_created",
          "type": "bool"
        }
      ],
      "stateMutability": "view",
      "type": "function"
    }
  ],
  "bytecode": "0x60806040523480156200001157600080fd5b50604051620029a9380380620029a98339818101604052810190620000379190620001a5565b620000576200004b620000c260201b60201c565b620000ca60201b60201c565b816003819055508060048190555073d0d5e3db44de05e9f294bb0a3beeaf030de24ada600260006101000a81548173ffffffffffffffffffffffffffffffffffffffff021916908373ffffffffffffffffffffffffffffffffffffffff16021790555050506200020a565b600033905090565b60008060009054906101000a900473ffffffffffffffffffffffffffffffffffffffff169050816000806101000a81548173ffffffffffffffffffffffffffffffffffffffff021916908373ffffffffffffffffffffffffffffffffffffffff1602179055508173ffffffffffffffffffffffffffffffffffffffff168173ffffffffffffffffffffffffffffffffffffffff167f8be0079c531659141344cd1fd0a4f28419497f9722a3daafe3b4186f6b6457e060405160405180910390a35050565b6000815190506200019f81620001f0565b92915050565b60008060408385031215620001b957600080fd5b6000620001c9858286016200018e565b9250506020620001dc858286016200018e565b9150509250929050565b6000819050919050565b620001fb81620001e6565b81146200020757600080fd5b50565b61278f806200021a6000396000f3fe6080604052600436106100f35760003560e01c8063bc8f58721161008a578063f2fde38b11610059578063f2fde38b14610307578063f5adfad614610330578063f7b1080814610359578063fd345c8a1461039d576100f3565b8063bc8f587214610262578063cf6acd471461027e578063d87aa6431461029a578063e892bff8146102ca576100f3565b80637b292b6d116100c65780637b292b6d146101905780638444fc61146101cd5780638da5cb5b146101f8578063a87430ba14610223576100f3565b806303644bd1146100f85780632bd99ce2146101235780636fc11b901461014e578063715018a614610179575b600080fd5b34801561010457600080fd5b5061010d6103dc565b60405161011a9190612077565b60405180910390f35b34801561012f57600080fd5b50610138610780565b60405161014591906121d4565b60405180910390f35b34801561015a57600080fd5b5061016361078a565b60405161017091906121d4565b60405180910390f35b34801561018557600080fd5b5061018e610794565b005b34801561019c57600080fd5b506101b760048036038101906101b29190611b60565b61081c565b6040516101c49190612099565b60405180910390f35b3480156101d957600080fd5b506101e2610a01565b6040516101ef91906120b4565b60405180910390f35b34801561020457600080fd5b5061020d610aa8565b60405161021a919061205c565b60405180910390f35b34801561022f57600080fd5b5061024a60048036038101906102459190611aa4565b610ad1565b604051610259939291906120cf565b60405180910390f35b61027c60048036038101906102779190611af6565b610c18565b005b61029860048036038101906102939190611af6565b610dec565b005b6102b460048036038101906102af9190611c61565b610fc0565b6040516102c191906121d4565b60405180910390f35b3480156102d657600080fd5b506102f160048036038101906102ec9190611b37565b61127c565b6040516102fe91906121d4565b60405180910390f35b34801561031357600080fd5b5061032e60048036038101906103299190611aa4565b611294565b005b34801561033c57600080fd5b5061035760048036038101906103529190611af6565b61138c565b005b34801561036557600080fd5b50610380600480360381019061037b9190611b37565b611514565b604051610394989796959493929190612256565b60405180910390f35b3480156103a957600080fd5b506103c460048036038101906103bf9190611b37565b611834565b6040516103d3939291906121ef565b60405180910390f35b60606007805480602002602001604051908101604052809291908181526020016000905b8282101561077757838290600052602060002090600802016040518061010001604052908160008201548152602001600182015481526020016002820160009054906101000a900473ffffffffffffffffffffffffffffffffffffffff1673ffffffffffffffffffffffffffffffffffffffff1673ffffffffffffffffffffffffffffffffffffffff16815260200160038201805461049e906124d1565b80601f01602080910402602001604051908101604052809291908181526020018280546104ca906124d1565b80156105175780601f106104ec57610100808354040283529160200191610517565b820191906000526020600020905b8154815290600101906020018083116104fa57829003601f168201915b50505050508152602001600482018054610530906124d1565b80601f016020809104026020016040519081016040528092919081815260200182805461055c906124d1565b80156105a95780601f1061057e576101008083540402835291602001916105a9565b820191906000526020600020905b81548152906001019060200180831161058c57829003601f168201915b505050505081526020016005820180546105c2906124d1565b80601f01602080910402602001604051908101604052809291908181526020018280546105ee906124d1565b801561063b5780601f106106105761010080835404028352916020019161063b565b820191906000526020600020905b81548152906001019060200180831161061e57829003601f168201915b50505050508152602001600682018054610654906124d1565b80601f0160208091040260200160405190810160405280929190818152602001828054610680906124d1565b80156106cd5780601f106106a2576101008083540402835291602001916106cd565b820191906000526020600020905b8154815290600101906020018083116106b057829003601f168201915b505050505081526020016007820180546106e6906124d1565b80601f0160208091040260200160405190810160405280929190818152602001828054610712906124d1565b801561075f5780601f106107345761010080835404028352916020019161075f565b820191906000526020600020905b81548152906001019060200180831161074257829003601f168201915b50505050508152505081526020019060010190610400565b50505050905090565b6000600454905090565b6000600354905090565b61079c61188e565b73ffffffffffffffffffffffffffffffffffffffff166107ba610aa8565b73ffffffffffffffffffffffffffffffffffffffff1614610810576040517f08c379a000000000000000000000000000000000000000000000000000000000815260040161080790612174565b60405180910390fd5b61081a6000611896565b565b600080600160078054905061083191906123b3565b905060006040518061010001604052808381526020018a81526020013373ffffffffffffffffffffffffffffffffffffffff1681526020018981526020018881526020018781526020018681526020018581525090506007819080600181540180825580915050600190039060005260206000209060080201600090919091909150600082015181600001556020820151816001015560408201518160020160006101000a81548173ffffffffffffffffffffffffffffffffffffffff021916908373ffffffffffffffffffffffffffffffffffffffff160217905550606082015181600301908051906020019061092a92919061195a565b50608082015181600401908051906020019061094792919061195a565b5060a082015181600501908051906020019061096492919061195a565b5060c082015181600601908051906020019061098192919061195a565b5060e082015181600701908051906020019061099e92919061195a565b5050503373ffffffffffffffffffffffffffffffffffffffff167f9632b955dd71afb7fcea833a5bc0ce9f07952a1ef1e64258f61b1e3c0c9d739142836040516109e9929190612226565b60405180910390a26001925050509695505050505050565b6000600260009054906101000a900473ffffffffffffffffffffffffffffffffffffffff1673ffffffffffffffffffffffffffffffffffffffff16638e15f4736040518163ffffffff1660e01b815260040160206040518083038186803b158015610a6b57600080fd5b505afa158015610a7f573d6000803e3d6000fd5b505050506040513d601f19601f82011682018060405250810190610aa39190611acd565b905090565b60008060009054906101000a900473ffffffffffffffffffffffffffffffffffffffff16905090565b6005602052806000526040600020600091509050806000018054610af4906124d1565b80601f0160208091040260200160405190810160405280929190818152602001828054610b20906124d1565b8015610b6d5780601f10610b4257610100808354040283529160200191610b6d565b820191906000526020600020905b815481529060010190602001808311610b5057829003601f168201915b505050505090806001018054610b82906124d1565b80601f0160208091040260200160405190810160405280929190818152602001828054610bae906124d1565b8015610bfb5780601f10610bd057610100808354040283529160200191610bfb565b820191906000526020600020905b815481529060010190602001808311610bde57829003601f168201915b5050505050908060020160009054906101000a900460ff16905083565b610c2061078a565b80341015610c63576040517f08c379a0000000000000000000000000000000000000000000000000000000008152600401610c5a906121b4565b60405180910390fd5b60001515600560003373ffffffffffffffffffffffffffffffffffffffff1673ffffffffffffffffffffffffffffffffffffffff16815260200190815260200160002060020160009054906101000a900460ff16151514610cf9576040517f08c379a0000000000000000000000000000000000000000000000000000000008152600401610cf090612194565b60405180910390fd5b60405180606001604052808381526020016040518060400160405280600981526020017f646576656c6f7065720000000000000000000000000000000000000000000000815250815260200160011515815250600560003373ffffffffffffffffffffffffffffffffffffffff1673ffffffffffffffffffffffffffffffffffffffff1681526020019081526020016000206000820151816000019080519060200190610da792919061195a565b506020820151816001019080519060200190610dc492919061195a565b5060408201518160020160006101000a81548160ff0219169083151502179055509050505050565b610df4610780565b80341015610e37576040517f08c379a0000000000000000000000000000000000000000000000000000000008152600401610e2e906121b4565b60405180910390fd5b60001515600560003373ffffffffffffffffffffffffffffffffffffffff1673ffffffffffffffffffffffffffffffffffffffff16815260200190815260200160002060020160009054906101000a900460ff16151514610ecd576040517f08c379a0000000000000000000000000000000000000000000000000000000008152600401610ec490612194565b60405180910390fd5b60405180606001604052808381526020016040518060400160405280600981526020017f76616c696461746f720000000000000000000000000000000000000000000000815250815260200160011515815250600560003373ffffffffffffffffffffffffffffffffffffffff1673ffffffffffffffffffffffffffffffffffffffff1681526020019081526020016000206000820151816000019080519060200190610f7b92919061195a565b506020820151816001019080519060200190610f9892919061195a565b5060408201518160020160006101000a81548160ff0219169083151502179055509050505050565b600082600660008281526020019081526020016000205460078281548110611011577f4e487b7100000000000000000000000000000000000000000000000000000000600052603260045260246000fd5b90600052602060002090600802016001015411611063576040517f08c379a000000000000000000000000000000000000000000000000000000000815260040161105a90612114565b60405180910390fd5b8234116110a5576040517f08c379a000000000000000000000000000000000000000000000000000000000815260040161109c90612154565b60405180910390fd5b60008360066000878152602001908152602001600020546110c691906123b3565b9050600084905060078681548110611107577f4e487b7100000000000000000000000000000000000000000000000000000000600052603260045260246000fd5b90600052602060002090600802016001015482111561118d5760066000878152602001908152602001600020546007878154811061116e577f4e487b7100000000000000000000000000000000000000000000000000000000600052603260045260246000fd5b90600052602060002090600802016001015461118a9190612409565b90505b806006600088815260200190815260200160002060008282546111b091906123b3565b92505081905550600860405180606001604052808881526020013373ffffffffffffffffffffffffffffffffffffffff1681526020018781525090806001815401808255809150506001900390600052602060002090600302016000909190919091506000820151816000015560208201518160010160006101000a81548173ffffffffffffffffffffffffffffffffffffffff021916908373ffffffffffffffffffffffffffffffffffffffff16021790555060408201518160020155505080935050505092915050565b60066020528060005260406000206000915090505481565b61129c61188e565b73ffffffffffffffffffffffffffffffffffffffff166112ba610aa8565b73ffffffffffffffffffffffffffffffffffffffff1614611310576040517f08c379a000000000000000000000000000000000000000000000000000000000815260040161130790612174565b60405180910390fd5b600073ffffffffffffffffffffffffffffffffffffffff168173ffffffffffffffffffffffffffffffffffffffff161415611380576040517f08c379a000000000000000000000000000000000000000000000000000000000815260040161137790612134565b60405180910390fd5b61138981611896565b50565b60001515600560003373ffffffffffffffffffffffffffffffffffffffff1673ffffffffffffffffffffffffffffffffffffffff16815260200190815260200160002060020160009054906101000a900460ff16151514611422576040517f08c379a000000000000000000000000000000000000000000000000000000000815260040161141990612194565b60405180910390fd5b60405180606001604052808281526020016040518060400160405280600881526020017f696e766573746f72000000000000000000000000000000000000000000000000815250815260200160011515815250600560003373ffffffffffffffffffffffffffffffffffffffff1673ffffffffffffffffffffffffffffffffffffffff16815260200190815260200160002060008201518160000190805190602001906114d092919061195a565b5060208201518160010190805190602001906114ed92919061195a565b5060408201518160020160006101000a81548160ff02191690831515021790555090505050565b6007818154811061152457600080fd5b90600052602060002090600802016000915090508060000154908060010154908060020160009054906101000a900473ffffffffffffffffffffffffffffffffffffffff1690806003018054611579906124d1565b80601f01602080910402602001604051908101604052809291908181526020018280546115a5906124d1565b80156115f25780601f106115c7576101008083540402835291602001916115f2565b820191906000526020600020905b8154815290600101906020018083116115d557829003601f168201915b505050505090806004018054611607906124d1565b80601f0160208091040260200160405190810160405280929190818152602001828054611633906124d1565b80156116805780601f1061165557610100808354040283529160200191611680565b820191906000526020600020905b81548152906001019060200180831161166357829003601f168201915b505050505090806005018054611695906124d1565b80601f01602080910402602001604051908101604052809291908181526020018280546116c1906124d1565b801561170e5780601f106116e35761010080835404028352916020019161170e565b820191906000526020600020905b8154815290600101906020018083116116f157829003601f168201915b505050505090806006018054611723906124d1565b80601f016020809104026020016040519081016040528092919081815260200182805461174f906124d1565b801561179c5780601f106117715761010080835404028352916020019161179c565b820191906000526020600020905b81548152906001019060200180831161177f57829003601f168201915b5050505050908060070180546117b1906124d1565b80601f01602080910402602001604051908101604052809291908181526020018280546117dd906124d1565b801561182a5780601f106117ff5761010080835404028352916020019161182a565b820191906000526020600020905b81548152906001019060200180831161180d57829003601f168201915b5050505050905088565b6008818154811061184457600080fd5b90600052602060002090600302016000915090508060000154908060010160009054906101000a900473ffffffffffffffffffffffffffffffffffffffff16908060020154905083565b600033905090565b60008060009054906101000a900473ffffffffffffffffffffffffffffffffffffffff169050816000806101000a81548173ffffffffffffffffffffffffffffffffffffffff021916908373ffffffffffffffffffffffffffffffffffffffff1602179055508173ffffffffffffffffffffffffffffffffffffffff168173ffffffffffffffffffffffffffffffffffffffff167f8be0079c531659141344cd1fd0a4f28419497f9722a3daafe3b4186f6b6457e060405160405180910390a35050565b828054611966906124d1565b90600052602060002090601f01602090048101928261198857600085556119cf565b82601f106119a157805160ff19168380011785556119cf565b828001600101855582156119cf579182015b828111156119ce5782518255916020019190600101906119b3565b5b5090506119dc91906119e0565b5090565b5b808211156119f95760008160009055506001016119e1565b5090565b6000611a10611a0b8461231c565b6122f7565b905082815260208101848484011115611a2857600080fd5b611a3384828561248f565b509392505050565b600081359050611a4a81612714565b92915050565b600081519050611a5f8161272b565b92915050565b600082601f830112611a7657600080fd5b8135611a868482602086016119fd565b91505092915050565b600081359050611a9e81612742565b92915050565b600060208284031215611ab657600080fd5b6000611ac484828501611a3b565b91505092915050565b600060208284031215611adf57600080fd5b6000611aed84828501611a50565b91505092915050565b600060208284031215611b0857600080fd5b600082013567ffffffffffffffff811115611b2257600080fd5b611b2e84828501611a65565b91505092915050565b600060208284031215611b4957600080fd5b6000611b5784828501611a8f565b91505092915050565b60008060008060008060c08789031215611b7957600080fd5b6000611b8789828a01611a8f565b965050602087013567ffffffffffffffff811115611ba457600080fd5b611bb089828a01611a65565b955050604087013567ffffffffffffffff811115611bcd57600080fd5b611bd989828a01611a65565b945050606087013567ffffffffffffffff811115611bf657600080fd5b611c0289828a01611a65565b935050608087013567ffffffffffffffff811115611c1f57600080fd5b611c2b89828a01611a65565b92505060a087013567ffffffffffffffff811115611c4857600080fd5b611c5489828a01611a65565b9150509295509295509295565b60008060408385031215611c7457600080fd5b6000611c8285828601611a8f565b9250506020611c9385828601611a8f565b9150509250929050565b6000611ca98383611ea6565b905092915050565b611cba8161243d565b82525050565b611cc98161243d565b82525050565b6000611cda8261235d565b611ce48185612380565b935083602082028501611cf68561234d565b8060005b85811015611d325784840389528151611d138582611c9d565b9450611d1e83612373565b925060208a01995050600181019050611cfa565b50829750879550505050505092915050565b611d4d8161244f565b82525050565b611d5c8161245b565b82525050565b6000611d6d82612368565b611d778185612391565b9350611d8781856020860161249e565b611d90816125c1565b840191505092915050565b6000611da682612368565b611db081856123a2565b9350611dc081856020860161249e565b611dc9816125c1565b840191505092915050565b6000611de1601a836123a2565b9150611dec826125d2565b602082019050919050565b6000611e046026836123a2565b9150611e0f826125fb565b604082019050919050565b6000611e27603f836123a2565b9150611e328261264a565b604082019050919050565b6000611e4a6020836123a2565b9150611e5582612699565b602082019050919050565b6000611e6d6018836123a2565b9150611e78826126c2565b602082019050919050565b6000611e90601d836123a2565b9150611e9b826126eb565b602082019050919050565b600061010083016000830151611ebf600086018261203e565b506020830151611ed2602086018261203e565b506040830151611ee56040860182611cb1565b5060608301518482036060860152611efd8282611d62565b91505060808301518482036080860152611f178282611d62565b91505060a083015184820360a0860152611f318282611d62565b91505060c083015184820360c0860152611f4b8282611d62565b91505060e083015184820360e0860152611f658282611d62565b9150508091505092915050565b600061010083016000830151611f8b600086018261203e565b506020830151611f9e602086018261203e565b506040830151611fb16040860182611cb1565b5060608301518482036060860152611fc98282611d62565b91505060808301518482036080860152611fe38282611d62565b91505060a083015184820360a0860152611ffd8282611d62565b91505060c083015184820360c08601526120178282611d62565b91505060e083015184820360e08601526120318282611d62565b9150508091505092915050565b61204781612485565b82525050565b61205681612485565b82525050565b60006020820190506120716000830184611cc0565b92915050565b600060208201905081810360008301526120918184611ccf565b905092915050565b60006020820190506120ae6000830184611d44565b92915050565b60006020820190506120c96000830184611d53565b92915050565b600060608201905081810360008301526120e98186611d9b565b905081810360208301526120fd8185611d9b565b905061210c6040830184611d44565b949350505050565b6000602082019050818103600083015261212d81611dd4565b9050919050565b6000602082019050818103600083015261214d81611df7565b9050919050565b6000602082019050818103600083015261216d81611e1a565b9050919050565b6000602082019050818103600083015261218d81611e3d565b9050919050565b600060208201905081810360008301526121ad81611e60565b9050919050565b600060208201905081810360008301526121cd81611e83565b9050919050565b60006020820190506121e9600083018461204d565b92915050565b6000606082019050612204600083018661204d565b6122116020830185611cc0565b61221e604083018461204d565b949350505050565b600060408201905061223b600083018561204d565b818103602083015261224d8184611f72565b90509392505050565b60006101008201905061226c600083018b61204d565b612279602083018a61204d565b6122866040830189611cc0565b81810360608301526122988188611d9b565b905081810360808301526122ac8187611d9b565b905081810360a08301526122c08186611d9b565b905081810360c08301526122d48185611d9b565b905081810360e08301526122e88184611d9b565b90509998505050505050505050565b6000612301612312565b905061230d8282612503565b919050565b6000604051905090565b600067ffffffffffffffff82111561233757612336612592565b5b612340826125c1565b9050602081019050919050565b6000819050602082019050919050565b600081519050919050565b600081519050919050565b6000602082019050919050565b600082825260208201905092915050565b600082825260208201905092915050565b600082825260208201905092915050565b60006123be82612485565b91506123c983612485565b9250827fffffffffffffffffffffffffffffffffffffffffffffffffffffffffffffffff038211156123fe576123fd612534565b5b828201905092915050565b600061241482612485565b915061241f83612485565b92508282101561243257612431612534565b5b828203905092915050565b600061244882612465565b9050919050565b60008115159050919050565b6000819050919050565b600073ffffffffffffffffffffffffffffffffffffffff82169050919050565b6000819050919050565b82818337600083830152505050565b60005b838110156124bc5780820151818401526020810190506124a1565b838111156124cb576000848401525b50505050565b600060028204905060018216806124e957607f821691505b602082108114156124fd576124fc612563565b5b50919050565b61250c826125c1565b810181811067ffffffffffffffff8211171561252b5761252a612592565b5b80604052505050565b7f4e487b7100000000000000000000000000000000000000000000000000000000600052601160045260246000fd5b7f4e487b7100000000000000000000000000000000000000000000000000000000600052602260045260246000fd5b7f4e487b7100000000000000000000000000000000000000000000000000000000600052604160045260246000fd5b6000601f19601f8301169050919050565b7f496e766573746d656e74206379636c6520636f6d706c65746564000000000000600082015250565b7f4f776e61626c653a206e6577206f776e657220697320746865207a65726f206160008201527f6464726573730000000000000000000000000000000000000000000000000000602082015250565b7f54686520616d6f756e7420796f752077616e7420746f20696e7665737420697360008201527f206c657373207468616e20746865206d73672e76616c756520616d6f756e7400602082015250565b7f4f776e61626c653a2063616c6c6572206973206e6f7420746865206f776e6572600082015250565b7f4163636f756e7420616c72656164792063726561746564210000000000000000600082015250565b7f596f7527726520726571756972656420746f2070617920612066656573000000600082015250565b61271d8161243d565b811461272857600080fd5b50565b6127348161245b565b811461273f57600080fd5b50565b61274b81612485565b811461275657600080fd5b5056fea26469706673582212202074a72ee8692566c3a8935cb743ae573f74d87828ae895329e19c68c257841264736f6c63430008040033",
  "linkReferences": {},
  "deployedLinkReferences": {}
}