{
    "_format": "hh-sol-artifact-1",
    "contractName": "DAORealEstate",
    "sourceName": "contracts/DAORealEstate.sol",
    "abi": [
        {
            "inputs": [
                {
                    "internalType": "uint256",
                    "name": "_developer_fees",
                    "type": "uint256"
                },
                {
                    "internalType": "uint256",
                    "name": "_validator_fees",
                    "type": "uint256"
                }
            ],
            "stateMutability": "nonpayable",
            "type": "constructor"
        },
        {
            "anonymous": false,
            "inputs": [
                {
                    "indexed": true,
                    "internalType": "address",
                    "name": "previousOwner",
                    "type": "address"
                },
                {
                    "indexed": true,
                    "internalType": "address",
                    "name": "newOwner",
                    "type": "address"
                }
            ],
            "name": "OwnershipTransferred",
            "type": "event"
        },
        {
            "inputs": [
                {
                    "internalType": "string",
                    "name": "_government_id",
                    "type": "string"
                },
                {
                    "internalType": "string",
                    "name": "_name",
                    "type": "string"
                },
                {
                    "internalType": "string",
                    "name": "_home_address",
                    "type": "string"
                }
            ],
            "name": "createDeveloper",
            "outputs": [],
            "stateMutability": "payable",
            "type": "function"
        },
        {
            "inputs": [
                {
                    "internalType": "string",
                    "name": "_name",
                    "type": "string"
                },
                {
                    "internalType": "string",
                    "name": "_government_id",
                    "type": "string"
                },
                {
                    "internalType": "string",
                    "name": "_home_address",
                    "type": "string"
                }
            ],
            "name": "createInvestor",
            "outputs": [],
            "stateMutability": "nonpayable",
            "type": "function"
        },
        {
            "inputs": [
                {
                    "internalType": "uint256",
                    "name": "_price",
                    "type": "uint256"
                },
                {
                    "internalType": "string",
                    "name": "_name",
                    "type": "string"
                },
                {
                    "internalType": "string",
                    "name": "_description",
                    "type": "string"
                },
                {
                    "internalType": "string",
                    "name": "_longitude",
                    "type": "string"
                },
                {
                    "internalType": "string",
                    "name": "_latitude",
                    "type": "string"
                },
                {
                    "internalType": "string",
                    "name": "_image_hash",
                    "type": "string"
                }
            ],
            "name": "createProperty",
            "outputs": [],
            "stateMutability": "nonpayable",
            "type": "function"
        },
        {
            "inputs": [
                {
                    "internalType": "string",
                    "name": "_home_address",
                    "type": "string"
                },
                {
                    "internalType": "string",
                    "name": "_government_id",
                    "type": "string"
                },
                {
                    "internalType": "string",
                    "name": "_name",
                    "type": "string"
                }
            ],
            "name": "createValidator",
            "outputs": [],
            "stateMutability": "payable",
            "type": "function"
        },
        {
            "inputs": [],
            "name": "gemmi",
            "outputs": [
                {
                    "internalType": "int256",
                    "name": "",
                    "type": "int256"
                }
            ],
            "stateMutability": "nonpayable",
            "type": "function"
        },
        {
            "inputs": [],
            "name": "getDeveloperCreationFees",
            "outputs": [
                {
                    "internalType": "uint256",
                    "name": "",
                    "type": "uint256"
                }
            ],
            "stateMutability": "nonpayable",
            "type": "function"
        },
        {
            "inputs": [],
            "name": "getValidatorCreationFees",
            "outputs": [
                {
                    "internalType": "uint256",
                    "name": "",
                    "type": "uint256"
                }
            ],
            "stateMutability": "nonpayable",
            "type": "function"
        },
        {
            "inputs": [],
            "name": "owner",
            "outputs": [
                {
                    "internalType": "address",
                    "name": "",
                    "type": "address"
                }
            ],
            "stateMutability": "view",
            "type": "function"
        },
        {
            "inputs": [
                {
                    "internalType": "uint256",
                    "name": "",
                    "type": "uint256"
                }
            ],
            "name": "properties",
            "outputs": [
                {
                    "internalType": "uint256",
                    "name": "id",
                    "type": "uint256"
                },
                {
                    "internalType": "uint256",
                    "name": "price",
                    "type": "uint256"
                },
                {
                    "internalType": "address",
                    "name": "developer",
                    "type": "address"
                },
                {
                    "internalType": "string",
                    "name": "name",
                    "type": "string"
                },
                {
                    "internalType": "string",
                    "name": "description",
                    "type": "string"
                },
                {
                    "internalType": "string",
                    "name": "longitude",
                    "type": "string"
                },
                {
                    "internalType": "string",
                    "name": "latitude",
                    "type": "string"
                },
                {
                    "internalType": "string",
                    "name": "image_hash",
                    "type": "string"
                }
            ],
            "stateMutability": "view",
            "type": "function"
        },
        {
            "inputs": [],
            "name": "renounceOwnership",
            "outputs": [],
            "stateMutability": "nonpayable",
            "type": "function"
        },
        {
            "inputs": [
                {
                    "internalType": "address",
                    "name": "newOwner",
                    "type": "address"
                }
            ],
            "name": "transferOwnership",
            "outputs": [],
            "stateMutability": "nonpayable",
            "type": "function"
        },
        {
            "inputs": [
                {
                    "internalType": "address",
                    "name": "",
                    "type": "address"
                }
            ],
            "name": "users",
            "outputs": [
                {
                    "internalType": "string",
                    "name": "home_address",
                    "type": "string"
                },
                {
                    "internalType": "string",
                    "name": "government_id",
                    "type": "string"
                },
                {
                    "internalType": "string",
                    "name": "name",
                    "type": "string"
                },
                {
                    "internalType": "string",
                    "name": "account_type",
                    "type": "string"
                },
                {
                    "internalType": "bool",
                    "name": "is_created",
                    "type": "bool"
                }
            ],
            "stateMutability": "view",
            "type": "function"
        }
    ],
    "bytecode": "0x60806040523480156200001157600080fd5b5060405162002038380380620020388339818101604052810190620000379190620001a5565b620000576200004b620000c260201b60201c565b620000ca60201b60201c565b816003819055508060048190555073d0d5e3db44de05e9f294bb0a3beeaf030de24ada600260006101000a81548173ffffffffffffffffffffffffffffffffffffffff021916908373ffffffffffffffffffffffffffffffffffffffff16021790555050506200020a565b600033905090565b60008060009054906101000a900473ffffffffffffffffffffffffffffffffffffffff169050816000806101000a81548173ffffffffffffffffffffffffffffffffffffffff021916908373ffffffffffffffffffffffffffffffffffffffff1602179055508173ffffffffffffffffffffffffffffffffffffffff168173ffffffffffffffffffffffffffffffffffffffff167f8be0079c531659141344cd1fd0a4f28419497f9722a3daafe3b4186f6b6457e060405160405180910390a35050565b6000815190506200019f81620001f0565b92915050565b60008060408385031215620001b957600080fd5b6000620001c9858286016200018e565b9250506020620001dc858286016200018e565b9150509250929050565b6000819050919050565b620001fb81620001e6565b81146200020757600080fd5b50565b611e1e806200021a6000396000f3fe6080604052600436106100a75760003560e01c80638da5cb5b116100645780638da5cb5b14610189578063a4ae0f77146101b4578063a87430ba146101dd578063b500192d1461021e578063f2fde38b1461023a578063f7b1080814610263576100a7565b80632bd99ce2146100ac578063318c04de146100d75780636fc11b90146100f3578063715018a61461011e5780637b292b6d146101355780638444fc611461015e575b600080fd5b3480156100b857600080fd5b506100c16102a7565b6040516100ce91906119d7565b60405180910390f35b6100f160048036038101906100ec91906115a8565b6102b1565b005b3480156100ff57600080fd5b506101086104cd565b60405161011591906119d7565b60405180910390f35b34801561012a57600080fd5b506101336104d7565b005b34801561014157600080fd5b5061015c60048036038101906101579190611668565b61055f565b005b34801561016a57600080fd5b50610173610809565b60405161018091906118cd565b60405180910390f35b34801561019557600080fd5b5061019e6108b0565b6040516101ab91906118b2565b60405180910390f35b3480156101c057600080fd5b506101db60048036038101906101d691906115a8565b6108d9565b005b3480156101e957600080fd5b5061020460048036038101906101ff9190611556565b610aa9565b6040516102159594939291906118e8565b60405180910390f35b610238600480360381019061023391906115a8565b610d0c565b005b34801561024657600080fd5b50610261600480360381019061025c9190611556565b610f28565b005b34801561026f57600080fd5b5061028a6004803603810190610285919061163f565b611020565b60405161029e9897969594939291906119f2565b60405180910390f35b6000600454905090565b6102b96102a7565b803410156102fc576040517f08c379a00000000000000000000000000000000000000000000000000000000081526004016102f3906119b7565b60405180910390fd5b60001515600560003373ffffffffffffffffffffffffffffffffffffffff1673ffffffffffffffffffffffffffffffffffffffff16815260200190815260200160002060040160009054906101000a900460ff16151514610392576040517f08c379a000000000000000000000000000000000000000000000000000000000815260040161038990611997565b60405180910390fd5b6040518060a001604052808581526020018481526020018381526020016040518060400160405280600981526020017f76616c696461746f720000000000000000000000000000000000000000000000815250815260200160011515815250600560003373ffffffffffffffffffffffffffffffffffffffff1673ffffffffffffffffffffffffffffffffffffffff168152602001908152602001600020600082015181600001908051906020019061044c92919061140c565b50602082015181600101908051906020019061046992919061140c565b50604082015181600201908051906020019061048692919061140c565b5060608201518160030190805190602001906104a392919061140c565b5060808201518160040160006101000a81548160ff02191690831515021790555090505050505050565b6000600354905090565b6104df611340565b73ffffffffffffffffffffffffffffffffffffffff166104fd6108b0565b73ffffffffffffffffffffffffffffffffffffffff1614610553576040517f08c379a000000000000000000000000000000000000000000000000000000000815260040161054a90611977565b60405180910390fd5b61055d6000611348565b565b6000600560003373ffffffffffffffffffffffffffffffffffffffff1673ffffffffffffffffffffffffffffffffffffffff16815260200190815260200160002060030180546105ae90611bd8565b80601f01602080910402602001604051908101604052809291908181526020018280546105da90611bd8565b80156106275780601f106105fc57610100808354040283529160200191610627565b820191906000526020600020905b81548152906001019060200180831161060a57829003601f168201915b505050505090507f646576656c6f706572000000000000000000000000000000000000000000000081604051602001610660919061189b565b604051602081830303815290604052805190602001201461068057600080fd5b600060016006805490506106949190611b10565b905060066040518061010001604052808381526020018a81526020013373ffffffffffffffffffffffffffffffffffffffff168152602001898152602001888152602001878152602001868152602001858152509080600181540180825580915050600190039060005260206000209060080201600090919091909150600082015181600001556020820151816001015560408201518160020160006101000a81548173ffffffffffffffffffffffffffffffffffffffff021916908373ffffffffffffffffffffffffffffffffffffffff160217905550606082015181600301908051906020019061078892919061140c565b5060808201518160040190805190602001906107a592919061140c565b5060a08201518160050190805190602001906107c292919061140c565b5060c08201518160060190805190602001906107df92919061140c565b5060e08201518160070190805190602001906107fc92919061140c565b5050505050505050505050565b6000600260009054906101000a900473ffffffffffffffffffffffffffffffffffffffff1673ffffffffffffffffffffffffffffffffffffffff16638e15f4736040518163ffffffff1660e01b815260040160206040518083038186803b15801561087357600080fd5b505afa158015610887573d6000803e3d6000fd5b505050506040513d601f19601f820116820180604052508101906108ab919061157f565b905090565b60008060009054906101000a900473ffffffffffffffffffffffffffffffffffffffff16905090565b60001515600560003373ffffffffffffffffffffffffffffffffffffffff1673ffffffffffffffffffffffffffffffffffffffff16815260200190815260200160002060040160009054906101000a900460ff1615151461096f576040517f08c379a000000000000000000000000000000000000000000000000000000000815260040161096690611997565b60405180910390fd5b6040518060a001604052808281526020018381526020018481526020016040518060400160405280600981526020017f646576656c6f7065720000000000000000000000000000000000000000000000815250815260200160011515815250600560003373ffffffffffffffffffffffffffffffffffffffff1673ffffffffffffffffffffffffffffffffffffffff1681526020019081526020016000206000820151816000019080519060200190610a2992919061140c565b506020820151816001019080519060200190610a4692919061140c565b506040820151816002019080519060200190610a6392919061140c565b506060820151816003019080519060200190610a8092919061140c565b5060808201518160040160006101000a81548160ff021916908315150217905550905050505050565b6005602052806000526040600020600091509050806000018054610acc90611bd8565b80601f0160208091040260200160405190810160405280929190818152602001828054610af890611bd8565b8015610b455780601f10610b1a57610100808354040283529160200191610b45565b820191906000526020600020905b815481529060010190602001808311610b2857829003601f168201915b505050505090806001018054610b5a90611bd8565b80601f0160208091040260200160405190810160405280929190818152602001828054610b8690611bd8565b8015610bd35780601f10610ba857610100808354040283529160200191610bd3565b820191906000526020600020905b815481529060010190602001808311610bb657829003601f168201915b505050505090806002018054610be890611bd8565b80601f0160208091040260200160405190810160405280929190818152602001828054610c1490611bd8565b8015610c615780601f10610c3657610100808354040283529160200191610c61565b820191906000526020600020905b815481529060010190602001808311610c4457829003601f168201915b505050505090806003018054610c7690611bd8565b80601f0160208091040260200160405190810160405280929190818152602001828054610ca290611bd8565b8015610cef5780601f10610cc457610100808354040283529160200191610cef565b820191906000526020600020905b815481529060010190602001808311610cd257829003601f168201915b5050505050908060040160009054906101000a900460ff16905085565b610d146104cd565b80341015610d57576040517f08c379a0000000000000000000000000000000000000000000000000000000008152600401610d4e906119b7565b60405180910390fd5b60001515600560003373ffffffffffffffffffffffffffffffffffffffff1673ffffffffffffffffffffffffffffffffffffffff16815260200190815260200160002060040160009054906101000a900460ff16151514610ded576040517f08c379a0000000000000000000000000000000000000000000000000000000008152600401610de490611997565b60405180910390fd5b6040518060a001604052808381526020018581526020018481526020016040518060400160405280600981526020017f646576656c6f7065720000000000000000000000000000000000000000000000815250815260200160011515815250600560003373ffffffffffffffffffffffffffffffffffffffff1673ffffffffffffffffffffffffffffffffffffffff1681526020019081526020016000206000820151816000019080519060200190610ea792919061140c565b506020820151816001019080519060200190610ec492919061140c565b506040820151816002019080519060200190610ee192919061140c565b506060820151816003019080519060200190610efe92919061140c565b5060808201518160040160006101000a81548160ff02191690831515021790555090505050505050565b610f30611340565b73ffffffffffffffffffffffffffffffffffffffff16610f4e6108b0565b73ffffffffffffffffffffffffffffffffffffffff1614610fa4576040517f08c379a0000000000000000000000000000000000000000000000000000000008152600401610f9b90611977565b60405180910390fd5b600073ffffffffffffffffffffffffffffffffffffffff168173ffffffffffffffffffffffffffffffffffffffff161415611014576040517f08c379a000000000000000000000000000000000000000000000000000000000815260040161100b90611957565b60405180910390fd5b61101d81611348565b50565b6006818154811061103057600080fd5b90600052602060002090600802016000915090508060000154908060010154908060020160009054906101000a900473ffffffffffffffffffffffffffffffffffffffff169080600301805461108590611bd8565b80601f01602080910402602001604051908101604052809291908181526020018280546110b190611bd8565b80156110fe5780601f106110d3576101008083540402835291602001916110fe565b820191906000526020600020905b8154815290600101906020018083116110e157829003601f168201915b50505050509080600401805461111390611bd8565b80601f016020809104026020016040519081016040528092919081815260200182805461113f90611bd8565b801561118c5780601f106111615761010080835404028352916020019161118c565b820191906000526020600020905b81548152906001019060200180831161116f57829003601f168201915b5050505050908060050180546111a190611bd8565b80601f01602080910402602001604051908101604052809291908181526020018280546111cd90611bd8565b801561121a5780601f106111ef5761010080835404028352916020019161121a565b820191906000526020600020905b8154815290600101906020018083116111fd57829003601f168201915b50505050509080600601805461122f90611bd8565b80601f016020809104026020016040519081016040528092919081815260200182805461125b90611bd8565b80156112a85780601f1061127d576101008083540402835291602001916112a8565b820191906000526020600020905b81548152906001019060200180831161128b57829003601f168201915b5050505050908060070180546112bd90611bd8565b80601f01602080910402602001604051908101604052809291908181526020018280546112e990611bd8565b80156113365780601f1061130b57610100808354040283529160200191611336565b820191906000526020600020905b81548152906001019060200180831161131957829003601f168201915b5050505050905088565b600033905090565b60008060009054906101000a900473ffffffffffffffffffffffffffffffffffffffff169050816000806101000a81548173ffffffffffffffffffffffffffffffffffffffff021916908373ffffffffffffffffffffffffffffffffffffffff1602179055508173ffffffffffffffffffffffffffffffffffffffff168173ffffffffffffffffffffffffffffffffffffffff167f8be0079c531659141344cd1fd0a4f28419497f9722a3daafe3b4186f6b6457e060405160405180910390a35050565b82805461141890611bd8565b90600052602060002090601f01602090048101928261143a5760008555611481565b82601f1061145357805160ff1916838001178555611481565b82800160010185558215611481579182015b82811115611480578251825591602001919060010190611465565b5b50905061148e9190611492565b5090565b5b808211156114ab576000816000905550600101611493565b5090565b60006114c26114bd84611ab8565b611a93565b9050828152602081018484840111156114da57600080fd5b6114e5848285611b96565b509392505050565b6000813590506114fc81611da3565b92915050565b60008151905061151181611dba565b92915050565b600082601f83011261152857600080fd5b81356115388482602086016114af565b91505092915050565b60008135905061155081611dd1565b92915050565b60006020828403121561156857600080fd5b6000611576848285016114ed565b91505092915050565b60006020828403121561159157600080fd5b600061159f84828501611502565b91505092915050565b6000806000606084860312156115bd57600080fd5b600084013567ffffffffffffffff8111156115d757600080fd5b6115e386828701611517565b935050602084013567ffffffffffffffff81111561160057600080fd5b61160c86828701611517565b925050604084013567ffffffffffffffff81111561162957600080fd5b61163586828701611517565b9150509250925092565b60006020828403121561165157600080fd5b600061165f84828501611541565b91505092915050565b60008060008060008060c0878903121561168157600080fd5b600061168f89828a01611541565b965050602087013567ffffffffffffffff8111156116ac57600080fd5b6116b889828a01611517565b955050604087013567ffffffffffffffff8111156116d557600080fd5b6116e189828a01611517565b945050606087013567ffffffffffffffff8111156116fe57600080fd5b61170a89828a01611517565b935050608087013567ffffffffffffffff81111561172757600080fd5b61173389828a01611517565b92505060a087013567ffffffffffffffff81111561175057600080fd5b61175c89828a01611517565b9150509295509295509295565b61177281611b44565b82525050565b61178181611b56565b82525050565b61179081611b62565b82525050565b60006117a182611ae9565b6117ab8185611af4565b93506117bb818560208601611ba5565b6117c481611cc8565b840191505092915050565b60006117da82611ae9565b6117e48185611b05565b93506117f4818560208601611ba5565b80840191505092915050565b600061180d602683611af4565b915061181882611cd9565b604082019050919050565b6000611830602083611af4565b915061183b82611d28565b602082019050919050565b6000611853601883611af4565b915061185e82611d51565b602082019050919050565b6000611876601d83611af4565b915061188182611d7a565b602082019050919050565b61189581611b8c565b82525050565b60006118a782846117cf565b915081905092915050565b60006020820190506118c76000830184611769565b92915050565b60006020820190506118e26000830184611787565b92915050565b600060a08201905081810360008301526119028188611796565b905081810360208301526119168187611796565b9050818103604083015261192a8186611796565b9050818103606083015261193e8185611796565b905061194d6080830184611778565b9695505050505050565b6000602082019050818103600083015261197081611800565b9050919050565b6000602082019050818103600083015261199081611823565b9050919050565b600060208201905081810360008301526119b081611846565b9050919050565b600060208201905081810360008301526119d081611869565b9050919050565b60006020820190506119ec600083018461188c565b92915050565b600061010082019050611a08600083018b61188c565b611a15602083018a61188c565b611a226040830189611769565b8181036060830152611a348188611796565b90508181036080830152611a488187611796565b905081810360a0830152611a5c8186611796565b905081810360c0830152611a708185611796565b905081810360e0830152611a848184611796565b90509998505050505050505050565b6000611a9d611aae565b9050611aa98282611c0a565b919050565b6000604051905090565b600067ffffffffffffffff821115611ad357611ad2611c99565b5b611adc82611cc8565b9050602081019050919050565b600081519050919050565b600082825260208201905092915050565b600081905092915050565b6000611b1b82611b8c565b9150611b2683611b8c565b925082821015611b3957611b38611c3b565b5b828203905092915050565b6000611b4f82611b6c565b9050919050565b60008115159050919050565b6000819050919050565b600073ffffffffffffffffffffffffffffffffffffffff82169050919050565b6000819050919050565b82818337600083830152505050565b60005b83811015611bc3578082015181840152602081019050611ba8565b83811115611bd2576000848401525b50505050565b60006002820490506001821680611bf057607f821691505b60208210811415611c0457611c03611c6a565b5b50919050565b611c1382611cc8565b810181811067ffffffffffffffff82111715611c3257611c31611c99565b5b80604052505050565b7f4e487b7100000000000000000000000000000000000000000000000000000000600052601160045260246000fd5b7f4e487b7100000000000000000000000000000000000000000000000000000000600052602260045260246000fd5b7f4e487b7100000000000000000000000000000000000000000000000000000000600052604160045260246000fd5b6000601f19601f8301169050919050565b7f4f776e61626c653a206e6577206f776e657220697320746865207a65726f206160008201527f6464726573730000000000000000000000000000000000000000000000000000602082015250565b7f4f776e61626c653a2063616c6c6572206973206e6f7420746865206f776e6572600082015250565b7f4163636f756e7420616c72656164792063726561746564210000000000000000600082015250565b7f596f7527726520726571756972656420746f2070617920612066656573000000600082015250565b611dac81611b44565b8114611db757600080fd5b50565b611dc381611b62565b8114611dce57600080fd5b50565b611dda81611b8c565b8114611de557600080fd5b5056fea264697066735822122072201f8220a4e6e68fbd8dab4c050a81dc115e92985cba3a79c239bb3f5dc39a64736f6c63430008040033",
    "linkReferences": {},
    "deployedLinkReferences": {}
}