{
  "_format": "hh-sol-artifact-1",
  "contractName": "DAORealEstate",
  "sourceName": "contracts/DAORealEstate.sol",
  "abi": [
    {
      "inputs": [
        {
          "internalType": "uint256",
          "name": "_developer_fees",
          "type": "uint256"
        },
        {
          "internalType": "uint256",
          "name": "_validator_fees",
          "type": "uint256"
        }
      ],
      "stateMutability": "nonpayable",
      "type": "constructor"
    },
    {
      "anonymous": false,
      "inputs": [
        {
          "indexed": true,
          "internalType": "address",
          "name": "previousOwner",
          "type": "address"
        },
        {
          "indexed": true,
          "internalType": "address",
          "name": "newOwner",
          "type": "address"
        }
      ],
      "name": "OwnershipTransferred",
      "type": "event"
    },
    {
      "inputs": [
        {
          "internalType": "string",
          "name": "_kyc_hash",
          "type": "string"
        }
      ],
      "name": "createDeveloper",
      "outputs": [],
      "stateMutability": "payable",
      "type": "function"
    },
    {
      "inputs": [
        {
          "internalType": "string",
          "name": "_kyc_hash",
          "type": "string"
        }
      ],
      "name": "createInvestor",
      "outputs": [],
      "stateMutability": "nonpayable",
      "type": "function"
    },
    {
      "inputs": [
        {
          "internalType": "uint256",
          "name": "_price",
          "type": "uint256"
        },
        {
          "internalType": "string",
          "name": "_name",
          "type": "string"
        },
        {
          "internalType": "string",
          "name": "_description",
          "type": "string"
        },
        {
          "internalType": "string",
          "name": "_longitude",
          "type": "string"
        },
        {
          "internalType": "string",
          "name": "_latitude",
          "type": "string"
        },
        {
          "internalType": "string",
          "name": "_image_hash",
          "type": "string"
        }
      ],
      "name": "createProperty",
      "outputs": [],
      "stateMutability": "nonpayable",
      "type": "function"
    },
    {
      "inputs": [
        {
          "internalType": "string",
          "name": "_kyc_hash",
          "type": "string"
        }
      ],
      "name": "createValidator",
      "outputs": [],
      "stateMutability": "payable",
      "type": "function"
    },
    {
      "inputs": [],
      "name": "gemmi",
      "outputs": [
        {
          "internalType": "int256",
          "name": "",
          "type": "int256"
        }
      ],
      "stateMutability": "nonpayable",
      "type": "function"
    },
    {
      "inputs": [],
      "name": "getDeveloperCreationFees",
      "outputs": [
        {
          "internalType": "uint256",
          "name": "",
          "type": "uint256"
        }
      ],
      "stateMutability": "nonpayable",
      "type": "function"
    },
    {
      "inputs": [],
      "name": "getValidatorCreationFees",
      "outputs": [
        {
          "internalType": "uint256",
          "name": "",
          "type": "uint256"
        }
      ],
      "stateMutability": "nonpayable",
      "type": "function"
    },
    {
      "inputs": [
        {
          "internalType": "uint256",
          "name": "_property_id",
          "type": "uint256"
        },
        {
          "internalType": "uint256",
          "name": "_amount",
          "type": "uint256"
        }
      ],
      "name": "invest",
      "outputs": [
        {
          "internalType": "uint256",
          "name": "",
          "type": "uint256"
        }
      ],
      "stateMutability": "payable",
      "type": "function"
    },
    {
      "inputs": [
        {
          "internalType": "uint256",
          "name": "",
          "type": "uint256"
        }
      ],
      "name": "investments",
      "outputs": [
        {
          "internalType": "uint256",
          "name": "property_id",
          "type": "uint256"
        },
        {
          "internalType": "address",
          "name": "investor",
          "type": "address"
        },
        {
          "internalType": "uint256",
          "name": "amount",
          "type": "uint256"
        }
      ],
      "stateMutability": "view",
      "type": "function"
    },
    {
      "inputs": [],
      "name": "owner",
      "outputs": [
        {
          "internalType": "address",
          "name": "",
          "type": "address"
        }
      ],
      "stateMutability": "view",
      "type": "function"
    },
    {
      "inputs": [
        {
          "internalType": "uint256",
          "name": "",
          "type": "uint256"
        }
      ],
      "name": "properties",
      "outputs": [
        {
          "internalType": "uint256",
          "name": "id",
          "type": "uint256"
        },
        {
          "internalType": "uint256",
          "name": "price",
          "type": "uint256"
        },
        {
          "internalType": "address",
          "name": "developer",
          "type": "address"
        },
        {
          "internalType": "string",
          "name": "name",
          "type": "string"
        },
        {
          "internalType": "string",
          "name": "description",
          "type": "string"
        },
        {
          "internalType": "string",
          "name": "longitude",
          "type": "string"
        },
        {
          "internalType": "string",
          "name": "latitude",
          "type": "string"
        },
        {
          "internalType": "string",
          "name": "image_hash",
          "type": "string"
        }
      ],
      "stateMutability": "view",
      "type": "function"
    },
    {
      "inputs": [],
      "name": "renounceOwnership",
      "outputs": [],
      "stateMutability": "nonpayable",
      "type": "function"
    },
    {
      "inputs": [
        {
          "internalType": "uint256",
          "name": "",
          "type": "uint256"
        }
      ],
      "name": "totalProperyInvestment",
      "outputs": [
        {
          "internalType": "uint256",
          "name": "",
          "type": "uint256"
        }
      ],
      "stateMutability": "view",
      "type": "function"
    },
    {
      "inputs": [
        {
          "internalType": "address",
          "name": "newOwner",
          "type": "address"
        }
      ],
      "name": "transferOwnership",
      "outputs": [],
      "stateMutability": "nonpayable",
      "type": "function"
    },
    {
      "inputs": [
        {
          "internalType": "address",
          "name": "",
          "type": "address"
        }
      ],
      "name": "users",
      "outputs": [
        {
          "internalType": "string",
          "name": "kyc_hash",
          "type": "string"
        },
        {
          "internalType": "string",
          "name": "account_type",
          "type": "string"
        },
        {
          "internalType": "bool",
          "name": "is_created",
          "type": "bool"
        }
      ],
      "stateMutability": "view",
      "type": "function"
    }
  ],
  "bytecode": "0x60806040523480156200001157600080fd5b50604051620024c5380380620024c58339818101604052810190620000379190620001a5565b620000576200004b620000c260201b60201c565b620000ca60201b60201c565b816003819055508060048190555073d0d5e3db44de05e9f294bb0a3beeaf030de24ada600260006101000a81548173ffffffffffffffffffffffffffffffffffffffff021916908373ffffffffffffffffffffffffffffffffffffffff16021790555050506200020a565b600033905090565b60008060009054906101000a900473ffffffffffffffffffffffffffffffffffffffff169050816000806101000a81548173ffffffffffffffffffffffffffffffffffffffff021916908373ffffffffffffffffffffffffffffffffffffffff1602179055508173ffffffffffffffffffffffffffffffffffffffff168173ffffffffffffffffffffffffffffffffffffffff167f8be0079c531659141344cd1fd0a4f28419497f9722a3daafe3b4186f6b6457e060405160405180910390a35050565b6000815190506200019f81620001f0565b92915050565b60008060408385031215620001b957600080fd5b6000620001c9858286016200018e565b9250506020620001dc858286016200018e565b9150509250929050565b6000819050919050565b620001fb81620001e6565b81146200020757600080fd5b50565b6122ab806200021a6000396000f3fe6080604052600436106100e85760003560e01c8063bc8f58721161008a578063f2fde38b11610059578063f2fde38b146102bd578063f5adfad6146102e6578063f7b108081461030f578063fd345c8a14610353576100e8565b8063bc8f587214610218578063cf6acd4714610234578063d87aa64314610250578063e892bff814610280576100e8565b80637b292b6d116100c65780637b292b6d1461015a5780638444fc61146101835780638da5cb5b146101ae578063a87430ba146101d9576100e8565b80632bd99ce2146100ed5780636fc11b9014610118578063715018a614610143575b600080fd5b3480156100f957600080fd5b50610102610392565b60405161010f9190611d5f565b60405180910390f35b34801561012457600080fd5b5061012d61039c565b60405161013a9190611d5f565b60405180910390f35b34801561014f57600080fd5b506101586103a6565b005b34801561016657600080fd5b50610181600480360381019061017c9190611958565b61042e565b005b34801561018f57600080fd5b506101986106d8565b6040516101a59190611c3f565b60405180910390f35b3480156101ba57600080fd5b506101c361077f565b6040516101d09190611c24565b60405180910390f35b3480156101e557600080fd5b5061020060048036038101906101fb919061189c565b6107a8565b60405161020f93929190611c5a565b60405180910390f35b610232600480360381019061022d91906118ee565b6108ef565b005b61024e600480360381019061024991906118ee565b610ac3565b005b61026a60048036038101906102659190611a59565b610c97565b6040516102779190611d5f565b60405180910390f35b34801561028c57600080fd5b506102a760048036038101906102a2919061192f565b611074565b6040516102b49190611d5f565b60405180910390f35b3480156102c957600080fd5b506102e460048036038101906102df919061189c565b61108c565b005b3480156102f257600080fd5b5061030d600480360381019061030891906118ee565b611184565b005b34801561031b57600080fd5b506103366004803603810190610331919061192f565b61130c565b60405161034a989796959493929190611db1565b60405180910390f35b34801561035f57600080fd5b5061037a6004803603810190610375919061192f565b61162c565b60405161038993929190611d7a565b60405180910390f35b6000600454905090565b6000600354905090565b6103ae611686565b73ffffffffffffffffffffffffffffffffffffffff166103cc61077f565b73ffffffffffffffffffffffffffffffffffffffff1614610422576040517f08c379a000000000000000000000000000000000000000000000000000000000815260040161041990611cff565b60405180910390fd5b61042c600061168e565b565b6000600560003373ffffffffffffffffffffffffffffffffffffffff1673ffffffffffffffffffffffffffffffffffffffff168152602001908152602001600020600101805461047d90611fed565b80601f01602080910402602001604051908101604052809291908181526020018280546104a990611fed565b80156104f65780601f106104cb576101008083540402835291602001916104f6565b820191906000526020600020905b8154815290600101906020018083116104d957829003601f168201915b505050505090507f646576656c6f70657200000000000000000000000000000000000000000000008160405160200161052f9190611c0d565b604051602081830303815290604052805190602001201461054f57600080fd5b600060016007805490506105639190611f25565b905060076040518061010001604052808381526020018a81526020013373ffffffffffffffffffffffffffffffffffffffff168152602001898152602001888152602001878152602001868152602001858152509080600181540180825580915050600190039060005260206000209060080201600090919091909150600082015181600001556020820151816001015560408201518160020160006101000a81548173ffffffffffffffffffffffffffffffffffffffff021916908373ffffffffffffffffffffffffffffffffffffffff1602179055506060820151816003019080519060200190610657929190611752565b506080820151816004019080519060200190610674929190611752565b5060a0820151816005019080519060200190610691929190611752565b5060c08201518160060190805190602001906106ae929190611752565b5060e08201518160070190805190602001906106cb929190611752565b5050505050505050505050565b6000600260009054906101000a900473ffffffffffffffffffffffffffffffffffffffff1673ffffffffffffffffffffffffffffffffffffffff16638e15f4736040518163ffffffff1660e01b815260040160206040518083038186803b15801561074257600080fd5b505afa158015610756573d6000803e3d6000fd5b505050506040513d601f19601f8201168201806040525081019061077a91906118c5565b905090565b60008060009054906101000a900473ffffffffffffffffffffffffffffffffffffffff16905090565b60056020528060005260406000206000915090508060000180546107cb90611fed565b80601f01602080910402602001604051908101604052809291908181526020018280546107f790611fed565b80156108445780601f1061081957610100808354040283529160200191610844565b820191906000526020600020905b81548152906001019060200180831161082757829003601f168201915b50505050509080600101805461085990611fed565b80601f016020809104026020016040519081016040528092919081815260200182805461088590611fed565b80156108d25780601f106108a7576101008083540402835291602001916108d2565b820191906000526020600020905b8154815290600101906020018083116108b557829003601f168201915b5050505050908060020160009054906101000a900460ff16905083565b6108f761039c565b8034101561093a576040517f08c379a000000000000000000000000000000000000000000000000000000000815260040161093190611d3f565b60405180910390fd5b60001515600560003373ffffffffffffffffffffffffffffffffffffffff1673ffffffffffffffffffffffffffffffffffffffff16815260200190815260200160002060020160009054906101000a900460ff161515146109d0576040517f08c379a00000000000000000000000000000000000000000000000000000000081526004016109c790611d1f565b60405180910390fd5b60405180606001604052808381526020016040518060400160405280600981526020017f646576656c6f7065720000000000000000000000000000000000000000000000815250815260200160011515815250600560003373ffffffffffffffffffffffffffffffffffffffff1673ffffffffffffffffffffffffffffffffffffffff1681526020019081526020016000206000820151816000019080519060200190610a7e929190611752565b506020820151816001019080519060200190610a9b929190611752565b5060408201518160020160006101000a81548160ff0219169083151502179055509050505050565b610acb610392565b80341015610b0e576040517f08c379a0000000000000000000000000000000000000000000000000000000008152600401610b0590611d3f565b60405180910390fd5b60001515600560003373ffffffffffffffffffffffffffffffffffffffff1673ffffffffffffffffffffffffffffffffffffffff16815260200190815260200160002060020160009054906101000a900460ff16151514610ba4576040517f08c379a0000000000000000000000000000000000000000000000000000000008152600401610b9b90611d1f565b60405180910390fd5b60405180606001604052808381526020016040518060400160405280600981526020017f76616c696461746f720000000000000000000000000000000000000000000000815250815260200160011515815250600560003373ffffffffffffffffffffffffffffffffffffffff1673ffffffffffffffffffffffffffffffffffffffff1681526020019081526020016000206000820151816000019080519060200190610c52929190611752565b506020820151816001019080519060200190610c6f929190611752565b5060408201518160020160006101000a81548160ff0219169083151502179055509050505050565b600080600560003373ffffffffffffffffffffffffffffffffffffffff1673ffffffffffffffffffffffffffffffffffffffff1681526020019081526020016000206001018054610ce790611fed565b80601f0160208091040260200160405190810160405280929190818152602001828054610d1390611fed565b8015610d605780601f10610d3557610100808354040283529160200191610d60565b820191906000526020600020905b815481529060010190602001808311610d4357829003601f168201915b505050505090507f696e766573746f7200000000000000000000000000000000000000000000000081604051602001610d999190611c0d565b6040516020818303038152906040528051906020012014610db957600080fd5b83600660008281526020019081526020016000205460078281548110610e08577f4e487b7100000000000000000000000000000000000000000000000000000000600052603260045260246000fd5b90600052602060002090600802016001015411610e5a576040517f08c379a0000000000000000000000000000000000000000000000000000000008152600401610e5190611c9f565b60405180910390fd5b833411610e9c576040517f08c379a0000000000000000000000000000000000000000000000000000000008152600401610e9390611cdf565b60405180910390fd5b6000846006600088815260200190815260200160002054610ebd9190611ecf565b9050600085905060078781548110610efe577f4e487b7100000000000000000000000000000000000000000000000000000000600052603260045260246000fd5b906000526020600020906008020160010154821115610f8457600660008881526020019081526020016000205460078881548110610f65577f4e487b7100000000000000000000000000000000000000000000000000000000600052603260045260246000fd5b906000526020600020906008020160010154610f819190611f25565b90505b80600660008981526020019081526020016000206000828254610fa79190611ecf565b92505081905550600860405180606001604052808981526020013373ffffffffffffffffffffffffffffffffffffffff1681526020018881525090806001815401808255809150506001900390600052602060002090600302016000909190919091506000820151816000015560208201518160010160006101000a81548173ffffffffffffffffffffffffffffffffffffffff021916908373ffffffffffffffffffffffffffffffffffffffff1602179055506040820151816002015550508094505050505092915050565b60066020528060005260406000206000915090505481565b611094611686565b73ffffffffffffffffffffffffffffffffffffffff166110b261077f565b73ffffffffffffffffffffffffffffffffffffffff1614611108576040517f08c379a00000000000000000000000000000000000000000000000000000000081526004016110ff90611cff565b60405180910390fd5b600073ffffffffffffffffffffffffffffffffffffffff168173ffffffffffffffffffffffffffffffffffffffff161415611178576040517f08c379a000000000000000000000000000000000000000000000000000000000815260040161116f90611cbf565b60405180910390fd5b6111818161168e565b50565b60001515600560003373ffffffffffffffffffffffffffffffffffffffff1673ffffffffffffffffffffffffffffffffffffffff16815260200190815260200160002060020160009054906101000a900460ff1615151461121a576040517f08c379a000000000000000000000000000000000000000000000000000000000815260040161121190611d1f565b60405180910390fd5b60405180606001604052808281526020016040518060400160405280600981526020017f646576656c6f7065720000000000000000000000000000000000000000000000815250815260200160011515815250600560003373ffffffffffffffffffffffffffffffffffffffff1673ffffffffffffffffffffffffffffffffffffffff16815260200190815260200160002060008201518160000190805190602001906112c8929190611752565b5060208201518160010190805190602001906112e5929190611752565b5060408201518160020160006101000a81548160ff02191690831515021790555090505050565b6007818154811061131c57600080fd5b90600052602060002090600802016000915090508060000154908060010154908060020160009054906101000a900473ffffffffffffffffffffffffffffffffffffffff169080600301805461137190611fed565b80601f016020809104026020016040519081016040528092919081815260200182805461139d90611fed565b80156113ea5780601f106113bf576101008083540402835291602001916113ea565b820191906000526020600020905b8154815290600101906020018083116113cd57829003601f168201915b5050505050908060040180546113ff90611fed565b80601f016020809104026020016040519081016040528092919081815260200182805461142b90611fed565b80156114785780601f1061144d57610100808354040283529160200191611478565b820191906000526020600020905b81548152906001019060200180831161145b57829003601f168201915b50505050509080600501805461148d90611fed565b80601f01602080910402602001604051908101604052809291908181526020018280546114b990611fed565b80156115065780601f106114db57610100808354040283529160200191611506565b820191906000526020600020905b8154815290600101906020018083116114e957829003601f168201915b50505050509080600601805461151b90611fed565b80601f016020809104026020016040519081016040528092919081815260200182805461154790611fed565b80156115945780601f1061156957610100808354040283529160200191611594565b820191906000526020600020905b81548152906001019060200180831161157757829003601f168201915b5050505050908060070180546115a990611fed565b80601f01602080910402602001604051908101604052809291908181526020018280546115d590611fed565b80156116225780601f106115f757610100808354040283529160200191611622565b820191906000526020600020905b81548152906001019060200180831161160557829003601f168201915b5050505050905088565b6008818154811061163c57600080fd5b90600052602060002090600302016000915090508060000154908060010160009054906101000a900473ffffffffffffffffffffffffffffffffffffffff16908060020154905083565b600033905090565b60008060009054906101000a900473ffffffffffffffffffffffffffffffffffffffff169050816000806101000a81548173ffffffffffffffffffffffffffffffffffffffff021916908373ffffffffffffffffffffffffffffffffffffffff1602179055508173ffffffffffffffffffffffffffffffffffffffff168173ffffffffffffffffffffffffffffffffffffffff167f8be0079c531659141344cd1fd0a4f28419497f9722a3daafe3b4186f6b6457e060405160405180910390a35050565b82805461175e90611fed565b90600052602060002090601f01602090048101928261178057600085556117c7565b82601f1061179957805160ff19168380011785556117c7565b828001600101855582156117c7579182015b828111156117c65782518255916020019190600101906117ab565b5b5090506117d491906117d8565b5090565b5b808211156117f15760008160009055506001016117d9565b5090565b600061180861180384611e77565b611e52565b90508281526020810184848401111561182057600080fd5b61182b848285611fab565b509392505050565b60008135905061184281612230565b92915050565b60008151905061185781612247565b92915050565b600082601f83011261186e57600080fd5b813561187e8482602086016117f5565b91505092915050565b6000813590506118968161225e565b92915050565b6000602082840312156118ae57600080fd5b60006118bc84828501611833565b91505092915050565b6000602082840312156118d757600080fd5b60006118e584828501611848565b91505092915050565b60006020828403121561190057600080fd5b600082013567ffffffffffffffff81111561191a57600080fd5b6119268482850161185d565b91505092915050565b60006020828403121561194157600080fd5b600061194f84828501611887565b91505092915050565b60008060008060008060c0878903121561197157600080fd5b600061197f89828a01611887565b965050602087013567ffffffffffffffff81111561199c57600080fd5b6119a889828a0161185d565b955050604087013567ffffffffffffffff8111156119c557600080fd5b6119d189828a0161185d565b945050606087013567ffffffffffffffff8111156119ee57600080fd5b6119fa89828a0161185d565b935050608087013567ffffffffffffffff811115611a1757600080fd5b611a2389828a0161185d565b92505060a087013567ffffffffffffffff811115611a4057600080fd5b611a4c89828a0161185d565b9150509295509295509295565b60008060408385031215611a6c57600080fd5b6000611a7a85828601611887565b9250506020611a8b85828601611887565b9150509250929050565b611a9e81611f59565b82525050565b611aad81611f6b565b82525050565b611abc81611f77565b82525050565b6000611acd82611ea8565b611ad78185611eb3565b9350611ae7818560208601611fba565b611af0816120dd565b840191505092915050565b6000611b0682611ea8565b611b108185611ec4565b9350611b20818560208601611fba565b80840191505092915050565b6000611b39601a83611eb3565b9150611b44826120ee565b602082019050919050565b6000611b5c602683611eb3565b9150611b6782612117565b604082019050919050565b6000611b7f603f83611eb3565b9150611b8a82612166565b604082019050919050565b6000611ba2602083611eb3565b9150611bad826121b5565b602082019050919050565b6000611bc5601883611eb3565b9150611bd0826121de565b602082019050919050565b6000611be8601d83611eb3565b9150611bf382612207565b602082019050919050565b611c0781611fa1565b82525050565b6000611c198284611afb565b915081905092915050565b6000602082019050611c396000830184611a95565b92915050565b6000602082019050611c546000830184611ab3565b92915050565b60006060820190508181036000830152611c748186611ac2565b90508181036020830152611c888185611ac2565b9050611c976040830184611aa4565b949350505050565b60006020820190508181036000830152611cb881611b2c565b9050919050565b60006020820190508181036000830152611cd881611b4f565b9050919050565b60006020820190508181036000830152611cf881611b72565b9050919050565b60006020820190508181036000830152611d1881611b95565b9050919050565b60006020820190508181036000830152611d3881611bb8565b9050919050565b60006020820190508181036000830152611d5881611bdb565b9050919050565b6000602082019050611d746000830184611bfe565b92915050565b6000606082019050611d8f6000830186611bfe565b611d9c6020830185611a95565b611da96040830184611bfe565b949350505050565b600061010082019050611dc7600083018b611bfe565b611dd4602083018a611bfe565b611de16040830189611a95565b8181036060830152611df38188611ac2565b90508181036080830152611e078187611ac2565b905081810360a0830152611e1b8186611ac2565b905081810360c0830152611e2f8185611ac2565b905081810360e0830152611e438184611ac2565b90509998505050505050505050565b6000611e5c611e6d565b9050611e68828261201f565b919050565b6000604051905090565b600067ffffffffffffffff821115611e9257611e916120ae565b5b611e9b826120dd565b9050602081019050919050565b600081519050919050565b600082825260208201905092915050565b600081905092915050565b6000611eda82611fa1565b9150611ee583611fa1565b9250827fffffffffffffffffffffffffffffffffffffffffffffffffffffffffffffffff03821115611f1a57611f19612050565b5b828201905092915050565b6000611f3082611fa1565b9150611f3b83611fa1565b925082821015611f4e57611f4d612050565b5b828203905092915050565b6000611f6482611f81565b9050919050565b60008115159050919050565b6000819050919050565b600073ffffffffffffffffffffffffffffffffffffffff82169050919050565b6000819050919050565b82818337600083830152505050565b60005b83811015611fd8578082015181840152602081019050611fbd565b83811115611fe7576000848401525b50505050565b6000600282049050600182168061200557607f821691505b602082108114156120195761201861207f565b5b50919050565b612028826120dd565b810181811067ffffffffffffffff82111715612047576120466120ae565b5b80604052505050565b7f4e487b7100000000000000000000000000000000000000000000000000000000600052601160045260246000fd5b7f4e487b7100000000000000000000000000000000000000000000000000000000600052602260045260246000fd5b7f4e487b7100000000000000000000000000000000000000000000000000000000600052604160045260246000fd5b6000601f19601f8301169050919050565b7f496e766573746d656e74206379636c6520636f6d706c65746564000000000000600082015250565b7f4f776e61626c653a206e6577206f776e657220697320746865207a65726f206160008201527f6464726573730000000000000000000000000000000000000000000000000000602082015250565b7f54686520616d6f756e7420796f752077616e7420746f20696e7665737420697360008201527f206c657373207468616e20746865206d73672e76616c756520616d6f756e7400602082015250565b7f4f776e61626c653a2063616c6c6572206973206e6f7420746865206f776e6572600082015250565b7f4163636f756e7420616c72656164792063726561746564210000000000000000600082015250565b7f596f7527726520726571756972656420746f2070617920612066656573000000600082015250565b61223981611f59565b811461224457600080fd5b50565b61225081611f77565b811461225b57600080fd5b50565b61226781611fa1565b811461227257600080fd5b5056fea2646970667358221220ecf29ae7dbbd973933691453bf3cc741df385316bb20470e5b44ee18431ea3bf64736f6c63430008040033",
  "linkReferences": {},
  "deployedLinkReferences": {}
}